{
  "_format": "hh-sol-artifact-1",
  "contractName": "Account",
  "sourceName": "contracts/Account.sol",
  "abi": [
    {
      "anonymous": false,
      "inputs": [
        {
          "indexed": false,
          "internalType": "address",
          "name": "accountAddress",
          "type": "address"
        },
        {
          "indexed": false,
          "internalType": "string",
          "name": "name",
          "type": "string"
        },
        {
          "indexed": false,
          "internalType": "string",
          "name": "description",
          "type": "string"
        },
        {
          "indexed": false,
          "internalType": "string",
          "name": "twitter",
          "type": "string"
        },
        {
          "indexed": false,
          "internalType": "string",
          "name": "telegram",
          "type": "string"
        },
        {
          "indexed": false,
          "internalType": "string",
          "name": "instagram",
          "type": "string"
        },
        {
          "indexed": false,
          "internalType": "string",
          "name": "imageURI",
          "type": "string"
        },
        {
          "indexed": false,
          "internalType": "string",
          "name": "email",
          "type": "string"
        },
        {
          "indexed": false,
          "internalType": "string",
          "name": "website",
          "type": "string"
        },
        {
          "indexed": false,
          "internalType": "bool",
          "name": "isAuthor",
          "type": "bool"
        }
      ],
      "name": "AccountCreated",
      "type": "event"
    },
    {
      "anonymous": false,
      "inputs": [
        {
          "indexed": false,
          "internalType": "address",
          "name": "accountAddress",
          "type": "address"
        },
        {
          "indexed": false,
          "internalType": "address",
          "name": "followerAddress",
          "type": "address"
        },
        {
          "indexed": false,
          "internalType": "string",
          "name": "imageURI",
          "type": "string"
        },
        {
          "indexed": false,
          "internalType": "string",
          "name": "name",
          "type": "string"
        },
        {
          "indexed": false,
          "internalType": "uint256",
          "name": "followers",
          "type": "uint256"
        }
      ],
      "name": "AccountFollowed",
      "type": "event"
    },
    {
      "anonymous": false,
      "inputs": [
        {
          "indexed": false,
          "internalType": "address",
          "name": "accountAddress",
          "type": "address"
        },
        {
          "indexed": false,
          "internalType": "address",
          "name": "followerAddress",
          "type": "address"
        },
        {
          "indexed": false,
          "internalType": "string",
          "name": "imageURI",
          "type": "string"
        },
        {
          "indexed": false,
          "internalType": "string",
          "name": "name",
          "type": "string"
        },
        {
          "indexed": false,
          "internalType": "uint256",
          "name": "followers",
          "type": "uint256"
        }
      ],
      "name": "AccountUnfollowed",
      "type": "event"
    },
    {
      "anonymous": false,
      "inputs": [
        {
          "indexed": false,
          "internalType": "address",
          "name": "accountAddress",
          "type": "address"
        },
        {
          "indexed": false,
          "internalType": "string",
          "name": "name",
          "type": "string"
        },
        {
          "indexed": false,
          "internalType": "string",
          "name": "description",
          "type": "string"
        },
        {
          "indexed": false,
          "internalType": "string",
          "name": "twitter",
          "type": "string"
        },
        {
          "indexed": false,
          "internalType": "string",
          "name": "telegram",
          "type": "string"
        },
        {
          "indexed": false,
          "internalType": "string",
          "name": "instagram",
          "type": "string"
        },
        {
          "indexed": false,
          "internalType": "string",
          "name": "imageURI",
          "type": "string"
        },
        {
          "indexed": false,
          "internalType": "string",
          "name": "email",
          "type": "string"
        },
        {
          "indexed": false,
          "internalType": "string",
          "name": "website",
          "type": "string"
        },
        {
          "indexed": false,
          "internalType": "bool",
          "name": "isAuthor",
          "type": "bool"
        }
      ],
      "name": "AccountUpdated",
      "type": "event"
    },
    {
      "inputs": [
        {
          "internalType": "address",
          "name": "",
          "type": "address"
        }
      ],
      "name": "accountDetails",
      "outputs": [
        {
          "internalType": "string",
          "name": "name",
          "type": "string"
        },
        {
          "internalType": "address",
          "name": "accountAddress",
          "type": "address"
        },
        {
          "internalType": "string",
          "name": "description",
          "type": "string"
        },
        {
          "internalType": "string",
          "name": "twitter",
          "type": "string"
        },
        {
          "internalType": "string",
          "name": "telegram",
          "type": "string"
        },
        {
          "internalType": "string",
          "name": "instagram",
          "type": "string"
        },
        {
          "internalType": "string",
          "name": "imageURI",
          "type": "string"
        },
        {
          "internalType": "string",
          "name": "email",
          "type": "string"
        },
        {
          "internalType": "string",
          "name": "website",
          "type": "string"
        },
        {
          "internalType": "bool",
          "name": "isAuthor",
          "type": "bool"
        }
      ],
      "stateMutability": "view",
      "type": "function"
    },
    {
      "inputs": [
        {
          "internalType": "string",
          "name": "_name",
          "type": "string"
        },
        {
          "internalType": "string",
          "name": "_description",
          "type": "string"
        },
        {
          "internalType": "string",
          "name": "_twitter",
          "type": "string"
        },
        {
          "internalType": "string",
          "name": "_telegram",
          "type": "string"
        },
        {
          "internalType": "string",
          "name": "_instagram",
          "type": "string"
        },
        {
          "internalType": "string",
          "name": "_imageURI",
          "type": "string"
        },
        {
          "internalType": "string",
          "name": "_email",
          "type": "string"
        },
        {
          "internalType": "string",
          "name": "_website",
          "type": "string"
        },
        {
          "internalType": "bool",
          "name": "_isAuthor",
          "type": "bool"
        }
      ],
      "name": "createAccount",
      "outputs": [],
      "stateMutability": "nonpayable",
      "type": "function"
    },
    {
      "inputs": [
        {
          "internalType": "address",
          "name": "_accountAddress",
          "type": "address"
        }
      ],
      "name": "followAccount",
      "outputs": [],
      "stateMutability": "nonpayable",
      "type": "function"
    },
    {
      "inputs": [
        {
          "internalType": "address",
          "name": "",
          "type": "address"
        },
        {
          "internalType": "uint256",
          "name": "",
          "type": "uint256"
        }
      ],
      "name": "followerAccounts",
      "outputs": [
        {
          "internalType": "address",
          "name": "accountAddress",
          "type": "address"
        },
        {
          "internalType": "string",
          "name": "imageURI",
          "type": "string"
        },
        {
          "internalType": "string",
          "name": "name",
          "type": "string"
        },
        {
          "internalType": "uint256",
          "name": "followers",
          "type": "uint256"
        }
      ],
      "stateMutability": "view",
      "type": "function"
    },
    {
      "inputs": [
        {
          "internalType": "address",
          "name": "",
          "type": "address"
        },
        {
          "internalType": "uint256",
          "name": "",
          "type": "uint256"
        }
      ],
      "name": "followingAccounts",
      "outputs": [
        {
          "internalType": "address",
          "name": "accountAddress",
          "type": "address"
        },
        {
          "internalType": "string",
          "name": "imageURI",
          "type": "string"
        },
        {
          "internalType": "string",
          "name": "name",
          "type": "string"
        },
        {
          "internalType": "uint256",
          "name": "followers",
          "type": "uint256"
        }
      ],
      "stateMutability": "view",
      "type": "function"
    },
    {
      "inputs": [
        {
          "internalType": "address",
          "name": "_accountAddress",
          "type": "address"
        }
      ],
      "name": "getAccountDetails",
      "outputs": [
        {
          "components": [
            {
              "internalType": "string",
              "name": "name",
              "type": "string"
            },
            {
              "internalType": "address",
              "name": "accountAddress",
              "type": "address"
            },
            {
              "internalType": "string",
              "name": "description",
              "type": "string"
            },
            {
              "internalType": "string",
              "name": "twitter",
              "type": "string"
            },
            {
              "internalType": "string",
              "name": "telegram",
              "type": "string"
            },
            {
              "internalType": "string",
              "name": "instagram",
              "type": "string"
            },
            {
              "internalType": "string",
              "name": "imageURI",
              "type": "string"
            },
            {
              "internalType": "string",
              "name": "email",
              "type": "string"
            },
            {
              "internalType": "string",
              "name": "website",
              "type": "string"
            },
            {
              "internalType": "bool",
              "name": "isAuthor",
              "type": "bool"
            }
          ],
          "internalType": "struct Account.AccountDetail",
          "name": "",
          "type": "tuple"
        }
      ],
      "stateMutability": "view",
      "type": "function"
    },
    {
      "inputs": [
        {
          "internalType": "address",
          "name": "_accountAddress",
          "type": "address"
        }
      ],
      "name": "getFollowerAccounts",
      "outputs": [
        {
          "components": [
            {
              "internalType": "address",
              "name": "accountAddress",
              "type": "address"
            },
            {
              "internalType": "string",
              "name": "imageURI",
              "type": "string"
            },
            {
              "internalType": "string",
              "name": "name",
              "type": "string"
            },
            {
              "internalType": "uint256",
              "name": "followers",
              "type": "uint256"
            }
          ],
          "internalType": "struct Account.followerAccount[]",
          "name": "",
          "type": "tuple[]"
        }
      ],
      "stateMutability": "view",
      "type": "function"
    },
    {
      "inputs": [
        {
          "internalType": "address",
          "name": "_accountAddress",
          "type": "address"
        }
      ],
      "name": "getFollowingAccounts",
      "outputs": [
        {
          "components": [
            {
              "internalType": "address",
              "name": "accountAddress",
              "type": "address"
            },
            {
              "internalType": "string",
              "name": "imageURI",
              "type": "string"
            },
            {
              "internalType": "string",
              "name": "name",
              "type": "string"
            },
            {
              "internalType": "uint256",
              "name": "followers",
              "type": "uint256"
            }
          ],
          "internalType": "struct Account.followingAccount[]",
          "name": "",
          "type": "tuple[]"
        }
      ],
      "stateMutability": "view",
      "type": "function"
    },
    {
      "inputs": [],
      "name": "getTopFollowers",
      "outputs": [
        {
          "components": [
            {
              "internalType": "address",
              "name": "accountAddress",
              "type": "address"
            },
            {
              "internalType": "string",
              "name": "imageURI",
              "type": "string"
            },
            {
              "internalType": "string",
              "name": "name",
              "type": "string"
            },
            {
              "internalType": "uint256",
              "name": "followers",
              "type": "uint256"
            }
          ],
          "internalType": "struct Account.followerAccount[6]",
          "name": "",
          "type": "tuple[6]"
        }
      ],
      "stateMutability": "nonpayable",
      "type": "function"
    },
    {
      "inputs": [
        {
          "internalType": "uint256",
          "name": "",
          "type": "uint256"
        }
      ],
      "name": "listAccount",
      "outputs": [
        {
          "internalType": "address",
          "name": "",
          "type": "address"
        }
      ],
      "stateMutability": "view",
      "type": "function"
    },
    {
      "inputs": [
        {
          "internalType": "address",
          "name": "_accountAddress",
          "type": "address"
        }
      ],
      "name": "unfollowAccont",
      "outputs": [],
      "stateMutability": "nonpayable",
      "type": "function"
    },
    {
      "inputs": [
        {
          "internalType": "string",
          "name": "_name",
          "type": "string"
        },
        {
          "internalType": "string",
          "name": "_description",
          "type": "string"
        },
        {
          "internalType": "string",
          "name": "_twitter",
          "type": "string"
        },
        {
          "internalType": "string",
          "name": "_telegram",
          "type": "string"
        },
        {
          "internalType": "string",
          "name": "_instagram",
          "type": "string"
        },
        {
          "internalType": "string",
          "name": "_imageURI",
          "type": "string"
        },
        {
          "internalType": "string",
          "name": "_email",
          "type": "string"
        },
        {
          "internalType": "string",
          "name": "_website",
          "type": "string"
        },
        {
          "internalType": "bool",
          "name": "_isAuthor",
          "type": "bool"
        }
      ],
      "name": "updateAccount",
      "outputs": [],
      "stateMutability": "nonpayable",
      "type": "function"
    }
  ],
  "bytecode": "0x6080604052348015600f57600080fd5b506139cb8061001f6000396000f3fe608060405234801561001057600080fd5b50600436106100b45760003560e01c80638038b053116100715780638038b053146101b9578063a95ac8f9146101d5578063bd7667fc14610205578063d9e67aee14610221578063df5650e91461023d578063ec8fd8001461026d576100b4565b80630234a6f2146100b95780631e4e552d146100d55780632aceb534146101085780634b0ba17a146101385780635bc2f502146101565780637682796914610186575b600080fd5b6100d360048036038101906100ce9190612916565b6102a6565b005b6100ef60048036038101906100ea9190612979565b610640565b6040516100ff9493929190612a67565b60405180910390f35b610122600480360381019061011d9190612916565b6107bd565b60405161012f9190612c39565b60405180910390f35b610140610d17565b60405161014d9190612d8a565b60405180910390f35b610170600480360381019061016b9190612916565b61135d565b60405161017d9190612ed8565b60405180910390f35b6101a0600480360381019061019b9190612979565b61157f565b6040516101b09493929190612a67565b60405180910390f35b6101d360048036038101906101ce919061305b565b6116fc565b005b6101ef60048036038101906101ea9190613205565b61190e565b6040516101fc9190613232565b60405180910390f35b61021f600480360381019061021a919061305b565b61194d565b005b61023b60048036038101906102369190612916565b611bc2565b005b61025760048036038101906102529190612916565b61208e565b60405161026491906132fb565b60405180910390f35b61028760048036038101906102829190612916565b6122b0565b60405161029d9a9998979695949392919061332c565b60405180910390f35b600073ffffffffffffffffffffffffffffffffffffffff166000803373ffffffffffffffffffffffffffffffffffffffff1673ffffffffffffffffffffffffffffffffffffffff16815260200190815260200160002060010160009054906101000a900473ffffffffffffffffffffffffffffffffffffffff1673ffffffffffffffffffffffffffffffffffffffff1603610376576040517f08c379a000000000000000000000000000000000000000000000000000000000815260040161036d9061344c565b60405180910390fd5b60005b600160003373ffffffffffffffffffffffffffffffffffffffff1673ffffffffffffffffffffffffffffffffffffffff1681526020019081526020016000208054905081101561053b578173ffffffffffffffffffffffffffffffffffffffff16600160003373ffffffffffffffffffffffffffffffffffffffff1673ffffffffffffffffffffffffffffffffffffffff168152602001908152602001600020828154811061042b5761042a61346c565b5b906000526020600020906004020160000160009054906101000a900473ffffffffffffffffffffffffffffffffffffffff1673ffffffffffffffffffffffffffffffffffffffff160361052e57600160003373ffffffffffffffffffffffffffffffffffffffff1673ffffffffffffffffffffffffffffffffffffffff16815260200190815260200160002081815481106104c9576104c861346c565b5b9060005260206000209060040201600080820160006101000a81549073ffffffffffffffffffffffffffffffffffffffff021916905560018201600061050f9190612771565b60028201600061051f9190612771565b6003820160009055505061053b565b8080600101915050610379565b507ffbce6d12d03f076b763092283908e354cf6e3834d2211cb67b05ce6b42fef1c881336000808573ffffffffffffffffffffffffffffffffffffffff1673ffffffffffffffffffffffffffffffffffffffff1681526020019081526020016000206006016000808673ffffffffffffffffffffffffffffffffffffffff1673ffffffffffffffffffffffffffffffffffffffff168152602001908152602001600020600001600260008773ffffffffffffffffffffffffffffffffffffffff1673ffffffffffffffffffffffffffffffffffffffff16815260200190815260200160002080549050604051610635959493929190613594565b60405180910390a150565b6002602052816000526040600020818154811061065c57600080fd5b9060005260206000209060040201600091509150508060000160009054906101000a900473ffffffffffffffffffffffffffffffffffffffff16908060010180546106a6906134ca565b80601f01602080910402602001604051908101604052809291908181526020018280546106d2906134ca565b801561071f5780601f106106f45761010080835404028352916020019161071f565b820191906000526020600020905b81548152906001019060200180831161070257829003601f168201915b505050505090806002018054610734906134ca565b80601f0160208091040260200160405190810160405280929190818152602001828054610760906134ca565b80156107ad5780601f10610782576101008083540402835291602001916107ad565b820191906000526020600020905b81548152906001019060200180831161079057829003601f168201915b5050505050908060030154905084565b6107c56127b1565b6000808373ffffffffffffffffffffffffffffffffffffffff1673ffffffffffffffffffffffffffffffffffffffff1681526020019081526020016000206040518061014001604052908160008201805461081f906134ca565b80601f016020809104026020016040519081016040528092919081815260200182805461084b906134ca565b80156108985780601f1061086d57610100808354040283529160200191610898565b820191906000526020600020905b81548152906001019060200180831161087b57829003601f168201915b505050505081526020016001820160009054906101000a900473ffffffffffffffffffffffffffffffffffffffff1673ffffffffffffffffffffffffffffffffffffffff1673ffffffffffffffffffffffffffffffffffffffff168152602001600282018054610907906134ca565b80601f0160208091040260200160405190810160405280929190818152602001828054610933906134ca565b80156109805780601f1061095557610100808354040283529160200191610980565b820191906000526020600020905b81548152906001019060200180831161096357829003601f168201915b50505050508152602001600382018054610999906134ca565b80601f01602080910402602001604051908101604052809291908181526020018280546109c5906134ca565b8015610a125780601f106109e757610100808354040283529160200191610a12565b820191906000526020600020905b8154815290600101906020018083116109f557829003601f168201915b50505050508152602001600482018054610a2b906134ca565b80601f0160208091040260200160405190810160405280929190818152602001828054610a57906134ca565b8015610aa45780601f10610a7957610100808354040283529160200191610aa4565b820191906000526020600020905b815481529060010190602001808311610a8757829003601f168201915b50505050508152602001600582018054610abd906134ca565b80601f0160208091040260200160405190810160405280929190818152602001828054610ae9906134ca565b8015610b365780601f10610b0b57610100808354040283529160200191610b36565b820191906000526020600020905b815481529060010190602001808311610b1957829003601f168201915b50505050508152602001600682018054610b4f906134ca565b80601f0160208091040260200160405190810160405280929190818152602001828054610b7b906134ca565b8015610bc85780601f10610b9d57610100808354040283529160200191610bc8565b820191906000526020600020905b815481529060010190602001808311610bab57829003601f168201915b50505050508152602001600782018054610be1906134ca565b80601f0160208091040260200160405190810160405280929190818152602001828054610c0d906134ca565b8015610c5a5780601f10610c2f57610100808354040283529160200191610c5a565b820191906000526020600020905b815481529060010190602001808311610c3d57829003601f168201915b50505050508152602001600882018054610c73906134ca565b80601f0160208091040260200160405190810160405280929190818152602001828054610c9f906134ca565b8015610cec5780601f10610cc157610100808354040283529160200191610cec565b820191906000526020600020905b815481529060010190602001808311610ccf57829003601f168201915b505050505081526020016009820160009054906101000a900460ff1615151515815250509050919050565b610d1f61281c565b610d2761281c565b60005b600380549050811015610fb6576000600182610d469190613624565b90505b600380549050811015610fa8576002600060038381548110610d6e57610d6d61346c565b5b9060005260206000200160009054906101000a900473ffffffffffffffffffffffffffffffffffffffff1673ffffffffffffffffffffffffffffffffffffffff1673ffffffffffffffffffffffffffffffffffffffff168152602001908152602001600020805490506002600060038581548110610def57610dee61346c565b5b9060005260206000200160009054906101000a900473ffffffffffffffffffffffffffffffffffffffff1673ffffffffffffffffffffffffffffffffffffffff1673ffffffffffffffffffffffffffffffffffffffff168152602001908152602001600020805490501015610f9b57600060038381548110610e7457610e7361346c565b5b9060005260206000200160009054906101000a900473ffffffffffffffffffffffffffffffffffffffff16905060038281548110610eb557610eb461346c565b5b9060005260206000200160009054906101000a900473ffffffffffffffffffffffffffffffffffffffff1660038481548110610ef457610ef361346c565b5b9060005260206000200160006101000a81548173ffffffffffffffffffffffffffffffffffffffff021916908373ffffffffffffffffffffffffffffffffffffffff1602179055508060038381548110610f5157610f5061346c565b5b9060005260206000200160006101000a81548173ffffffffffffffffffffffffffffffffffffffff021916908373ffffffffffffffffffffffffffffffffffffffff160217905550505b8080600101915050610d49565b508080600101915050610d2a565b5060005b6006811015611355576000604051806080016040528060008060038681548110610fe757610fe661346c565b5b9060005260206000200160009054906101000a900473ffffffffffffffffffffffffffffffffffffffff1673ffffffffffffffffffffffffffffffffffffffff1673ffffffffffffffffffffffffffffffffffffffff16815260200190815260200160002060010160009054906101000a900473ffffffffffffffffffffffffffffffffffffffff1673ffffffffffffffffffffffffffffffffffffffff168152602001600080600386815481106110a2576110a161346c565b5b9060005260206000200160009054906101000a900473ffffffffffffffffffffffffffffffffffffffff1673ffffffffffffffffffffffffffffffffffffffff1673ffffffffffffffffffffffffffffffffffffffff1681526020019081526020016000206006018054611115906134ca565b80601f0160208091040260200160405190810160405280929190818152602001828054611141906134ca565b801561118e5780601f106111635761010080835404028352916020019161118e565b820191906000526020600020905b81548152906001019060200180831161117157829003601f168201915b50505050508152602001600080600386815481106111af576111ae61346c565b5b9060005260206000200160009054906101000a900473ffffffffffffffffffffffffffffffffffffffff1673ffffffffffffffffffffffffffffffffffffffff1673ffffffffffffffffffffffffffffffffffffffff1681526020019081526020016000206000018054611222906134ca565b80601f016020809104026020016040519081016040528092919081815260200182805461124e906134ca565b801561129b5780601f106112705761010080835404028352916020019161129b565b820191906000526020600020905b81548152906001019060200180831161127e57829003601f168201915b5050505050815260200160026000600386815481106112bd576112bc61346c565b5b9060005260206000200160009054906101000a900473ffffffffffffffffffffffffffffffffffffffff1673ffffffffffffffffffffffffffffffffffffffff1673ffffffffffffffffffffffffffffffffffffffff1681526020019081526020016000208054905081525090508083836006811061133f5761133e61346c565b5b6020020181905250508080600101915050610fba565b508091505090565b6060600160008373ffffffffffffffffffffffffffffffffffffffff1673ffffffffffffffffffffffffffffffffffffffff168152602001908152602001600020805480602002602001604051908101604052809291908181526020016000905b8282101561157457838290600052602060002090600402016040518060800160405290816000820160009054906101000a900473ffffffffffffffffffffffffffffffffffffffff1673ffffffffffffffffffffffffffffffffffffffff1673ffffffffffffffffffffffffffffffffffffffff168152602001600182018054611447906134ca565b80601f0160208091040260200160405190810160405280929190818152602001828054611473906134ca565b80156114c05780601f10611495576101008083540402835291602001916114c0565b820191906000526020600020905b8154815290600101906020018083116114a357829003601f168201915b505050505081526020016002820180546114d9906134ca565b80601f0160208091040260200160405190810160405280929190818152602001828054611505906134ca565b80156115525780601f1061152757610100808354040283529160200191611552565b820191906000526020600020905b81548152906001019060200180831161153557829003601f168201915b50505050508152602001600382015481525050815260200190600101906113be565b505050509050919050565b6001602052816000526040600020818154811061159b57600080fd5b9060005260206000209060040201600091509150508060000160009054906101000a900473ffffffffffffffffffffffffffffffffffffffff16908060010180546115e5906134ca565b80601f0160208091040260200160405190810160405280929190818152602001828054611611906134ca565b801561165e5780601f106116335761010080835404028352916020019161165e565b820191906000526020600020905b81548152906001019060200180831161164157829003601f168201915b505050505090806002018054611673906134ca565b80601f016020809104026020016040519081016040528092919081815260200182805461169f906134ca565b80156116ec5780601f106116c1576101008083540402835291602001916116ec565b820191906000526020600020905b8154815290600101906020018083116116cf57829003601f168201915b5050505050908060030154905084565b60006040518061014001604052808b81526020013373ffffffffffffffffffffffffffffffffffffffff1681526020018a81526020018981526020018881526020018781526020018681526020018581526020018481526020018315158152509050806000803373ffffffffffffffffffffffffffffffffffffffff1673ffffffffffffffffffffffffffffffffffffffff16815260200190815260200160002060008201518160000190816117b291906137ef565b5060208201518160010160006101000a81548173ffffffffffffffffffffffffffffffffffffffff021916908373ffffffffffffffffffffffffffffffffffffffff160217905550604082015181600201908161180f91906137ef565b50606082015181600301908161182591906137ef565b50608082015181600401908161183b91906137ef565b5060a082015181600501908161185191906137ef565b5060c082015181600601908161186791906137ef565b5060e082015181600701908161187d91906137ef565b5061010082015181600801908161189491906137ef565b506101208201518160090160006101000a81548160ff0219169083151502179055509050507f1f2e6933920b355a661af96c854843974bff056c23cb969b95e04de83aa33c8b338b8b8b8b8b8b8b8b8b6040516118fa9a999897969594939291906138c1565b60405180910390a150505050505050505050565b6003818154811061191e57600080fd5b906000526020600020016000915054906101000a900473ffffffffffffffffffffffffffffffffffffffff1681565b60006040518061014001604052808b81526020013373ffffffffffffffffffffffffffffffffffffffff1681526020018a81526020018981526020018881526020018781526020018681526020018581526020018481526020018315158152509050806000803373ffffffffffffffffffffffffffffffffffffffff1673ffffffffffffffffffffffffffffffffffffffff1681526020019081526020016000206000820151816000019081611a0391906137ef565b5060208201518160010160006101000a81548173ffffffffffffffffffffffffffffffffffffffff021916908373ffffffffffffffffffffffffffffffffffffffff1602179055506040820151816002019081611a6091906137ef565b506060820151816003019081611a7691906137ef565b506080820151816004019081611a8c91906137ef565b5060a0820151816005019081611aa291906137ef565b5060c0820151816006019081611ab891906137ef565b5060e0820151816007019081611ace91906137ef565b50610100820151816008019081611ae591906137ef565b506101208201518160090160006101000a81548160ff0219169083151502179055509050506003339080600181540180825580915050600190039060005260206000200160009091909190916101000a81548173ffffffffffffffffffffffffffffffffffffffff021916908373ffffffffffffffffffffffffffffffffffffffff1602179055507f52aaaef3d6189b9de30d1a3fc20c5b32d5b3ed3baf80278d6152e8036ce2a944338b8b8b8b8b8b8b8b8b604051611bae9a999897969594939291906138c1565b60405180910390a150505050505050505050565b600073ffffffffffffffffffffffffffffffffffffffff166000808373ffffffffffffffffffffffffffffffffffffffff1673ffffffffffffffffffffffffffffffffffffffff16815260200190815260200160002060010160009054906101000a900473ffffffffffffffffffffffffffffffffffffffff1673ffffffffffffffffffffffffffffffffffffffff1603611c92576040517f08c379a0000000000000000000000000000000000000000000000000000000008152600401611c899061344c565b60405180910390fd5b600060405180608001604052808373ffffffffffffffffffffffffffffffffffffffff1681526020016000808573ffffffffffffffffffffffffffffffffffffffff1673ffffffffffffffffffffffffffffffffffffffff1681526020019081526020016000206006018054611d07906134ca565b80601f0160208091040260200160405190810160405280929190818152602001828054611d33906134ca565b8015611d805780601f10611d5557610100808354040283529160200191611d80565b820191906000526020600020905b815481529060010190602001808311611d6357829003601f168201915b505050505081526020016000808573ffffffffffffffffffffffffffffffffffffffff1673ffffffffffffffffffffffffffffffffffffffff1681526020019081526020016000206000018054611dd6906134ca565b80601f0160208091040260200160405190810160405280929190818152602001828054611e02906134ca565b8015611e4f5780601f10611e2457610100808354040283529160200191611e4f565b820191906000526020600020905b815481529060010190602001808311611e3257829003601f168201915b50505050508152602001600260008573ffffffffffffffffffffffffffffffffffffffff1673ffffffffffffffffffffffffffffffffffffffff168152602001908152602001600020805490508152509050600160003373ffffffffffffffffffffffffffffffffffffffff1673ffffffffffffffffffffffffffffffffffffffff16815260200190815260200160002081908060018154018082558091505060019003906000526020600020906004020160009091909190915060008201518160000160006101000a81548173ffffffffffffffffffffffffffffffffffffffff021916908373ffffffffffffffffffffffffffffffffffffffff1602179055506020820151816001019081611f6691906137ef565b506040820151816002019081611f7c91906137ef565b506060820151816003015550507f08aedcf1040d72a81ca4bbeeb4c52badc03f1b3b7f2c7bc1c1a71c63d73f9a2982336000808673ffffffffffffffffffffffffffffffffffffffff1673ffffffffffffffffffffffffffffffffffffffff1681526020019081526020016000206006016000808773ffffffffffffffffffffffffffffffffffffffff1673ffffffffffffffffffffffffffffffffffffffff168152602001908152602001600020600001600260008873ffffffffffffffffffffffffffffffffffffffff1673ffffffffffffffffffffffffffffffffffffffff16815260200190815260200160002080549050604051612082959493929190613594565b60405180910390a15050565b6060600260008373ffffffffffffffffffffffffffffffffffffffff1673ffffffffffffffffffffffffffffffffffffffff168152602001908152602001600020805480602002602001604051908101604052809291908181526020016000905b828210156122a557838290600052602060002090600402016040518060800160405290816000820160009054906101000a900473ffffffffffffffffffffffffffffffffffffffff1673ffffffffffffffffffffffffffffffffffffffff1673ffffffffffffffffffffffffffffffffffffffff168152602001600182018054612178906134ca565b80601f01602080910402602001604051908101604052809291908181526020018280546121a4906134ca565b80156121f15780601f106121c6576101008083540402835291602001916121f1565b820191906000526020600020905b8154815290600101906020018083116121d457829003601f168201915b5050505050815260200160028201805461220a906134ca565b80601f0160208091040260200160405190810160405280929190818152602001828054612236906134ca565b80156122835780601f1061225857610100808354040283529160200191612283565b820191906000526020600020905b81548152906001019060200180831161226657829003601f168201915b50505050508152602001600382015481525050815260200190600101906120ef565b505050509050919050565b60006020528060005260406000206000915090508060000180546122d3906134ca565b80601f01602080910402602001604051908101604052809291908181526020018280546122ff906134ca565b801561234c5780601f106123215761010080835404028352916020019161234c565b820191906000526020600020905b81548152906001019060200180831161232f57829003601f168201915b5050505050908060010160009054906101000a900473ffffffffffffffffffffffffffffffffffffffff1690806002018054612387906134ca565b80601f01602080910402602001604051908101604052809291908181526020018280546123b3906134ca565b80156124005780601f106123d557610100808354040283529160200191612400565b820191906000526020600020905b8154815290600101906020018083116123e357829003601f168201915b505050505090806003018054612415906134ca565b80601f0160208091040260200160405190810160405280929190818152602001828054612441906134ca565b801561248e5780601f106124635761010080835404028352916020019161248e565b820191906000526020600020905b81548152906001019060200180831161247157829003601f168201915b5050505050908060040180546124a3906134ca565b80601f01602080910402602001604051908101604052809291908181526020018280546124cf906134ca565b801561251c5780601f106124f15761010080835404028352916020019161251c565b820191906000526020600020905b8154815290600101906020018083116124ff57829003601f168201915b505050505090806005018054612531906134ca565b80601f016020809104026020016040519081016040528092919081815260200182805461255d906134ca565b80156125aa5780601f1061257f576101008083540402835291602001916125aa565b820191906000526020600020905b81548152906001019060200180831161258d57829003601f168201915b5050505050908060060180546125bf906134ca565b80601f01602080910402602001604051908101604052809291908181526020018280546125eb906134ca565b80156126385780601f1061260d57610100808354040283529160200191612638565b820191906000526020600020905b81548152906001019060200180831161261b57829003601f168201915b50505050509080600701805461264d906134ca565b80601f0160208091040260200160405190810160405280929190818152602001828054612679906134ca565b80156126c65780601f1061269b576101008083540402835291602001916126c6565b820191906000526020600020905b8154815290600101906020018083116126a957829003601f168201915b5050505050908060080180546126db906134ca565b80601f0160208091040260200160405190810160405280929190818152602001828054612707906134ca565b80156127545780601f1061272957610100808354040283529160200191612754565b820191906000526020600020905b81548152906001019060200180831161273757829003601f168201915b5050505050908060090160009054906101000a900460ff1690508a565b50805461277d906134ca565b6000825580601f1061278f57506127ae565b601f0160209004906000526020600020908101906127ad9190612849565b5b50565b60405180610140016040528060608152602001600073ffffffffffffffffffffffffffffffffffffffff168152602001606081526020016060815260200160608152602001606081526020016060815260200160608152602001606081526020016000151581525090565b6040518060c001604052806006905b612833612866565b81526020019060019003908161282b5790505090565b5b8082111561286257600081600090555060010161284a565b5090565b6040518060800160405280600073ffffffffffffffffffffffffffffffffffffffff1681526020016060815260200160608152602001600081525090565b6000604051905090565b600080fd5b600080fd5b600073ffffffffffffffffffffffffffffffffffffffff82169050919050565b60006128e3826128b8565b9050919050565b6128f3816128d8565b81146128fe57600080fd5b50565b600081359050612910816128ea565b92915050565b60006020828403121561292c5761292b6128ae565b5b600061293a84828501612901565b91505092915050565b6000819050919050565b61295681612943565b811461296157600080fd5b50565b6000813590506129738161294d565b92915050565b600080604083850312156129905761298f6128ae565b5b600061299e85828601612901565b92505060206129af85828601612964565b9150509250929050565b6129c2816128d8565b82525050565b600081519050919050565b600082825260208201905092915050565b60005b83811015612a025780820151818401526020810190506129e7565b60008484015250505050565b6000601f19601f8301169050919050565b6000612a2a826129c8565b612a3481856129d3565b9350612a448185602086016129e4565b612a4d81612a0e565b840191505092915050565b612a6181612943565b82525050565b6000608082019050612a7c60008301876129b9565b8181036020830152612a8e8186612a1f565b90508181036040830152612aa28185612a1f565b9050612ab16060830184612a58565b95945050505050565b600082825260208201905092915050565b6000612ad6826129c8565b612ae08185612aba565b9350612af08185602086016129e4565b612af981612a0e565b840191505092915050565b612b0d816128d8565b82525050565b60008115159050919050565b612b2881612b13565b82525050565b6000610140830160008301518482036000860152612b4c8282612acb565b9150506020830151612b616020860182612b04565b5060408301518482036040860152612b798282612acb565b91505060608301518482036060860152612b938282612acb565b91505060808301518482036080860152612bad8282612acb565b91505060a083015184820360a0860152612bc78282612acb565b91505060c083015184820360c0860152612be18282612acb565b91505060e083015184820360e0860152612bfb8282612acb565b915050610100830151848203610100860152612c178282612acb565b915050610120830151612c2e610120860182612b1f565b508091505092915050565b60006020820190508181036000830152612c538184612b2e565b905092915050565b600060069050919050565b600081905092915050565b6000819050919050565b612c8481612943565b82525050565b6000608083016000830151612ca26000860182612b04565b5060208301518482036020860152612cba8282612acb565b91505060408301518482036040860152612cd48282612acb565b9150506060830151612ce96060860182612c7b565b508091505092915050565b6000612d008383612c8a565b905092915050565b6000602082019050919050565b6000612d2082612c5b565b612d2a8185612c66565b935083602082028501612d3c85612c71565b8060005b85811015612d785784840389528151612d598582612cf4565b9450612d6483612d08565b925060208a01995050600181019050612d40565b50829750879550505050505092915050565b60006020820190508181036000830152612da48184612d15565b905092915050565b600081519050919050565b600082825260208201905092915050565b6000819050602082019050919050565b6000608083016000830151612df06000860182612b04565b5060208301518482036020860152612e088282612acb565b91505060408301518482036040860152612e228282612acb565b9150506060830151612e376060860182612c7b565b508091505092915050565b6000612e4e8383612dd8565b905092915050565b6000602082019050919050565b6000612e6e82612dac565b612e788185612db7565b935083602082028501612e8a85612dc8565b8060005b85811015612ec65784840389528151612ea78582612e42565b9450612eb283612e56565b925060208a01995050600181019050612e8e565b50829750879550505050505092915050565b60006020820190508181036000830152612ef28184612e63565b905092915050565b600080fd5b600080fd5b7f4e487b7100000000000000000000000000000000000000000000000000000000600052604160045260246000fd5b612f3c82612a0e565b810181811067ffffffffffffffff82111715612f5b57612f5a612f04565b5b80604052505050565b6000612f6e6128a4565b9050612f7a8282612f33565b919050565b600067ffffffffffffffff821115612f9a57612f99612f04565b5b612fa382612a0e565b9050602081019050919050565b82818337600083830152505050565b6000612fd2612fcd84612f7f565b612f64565b905082815260208101848484011115612fee57612fed612eff565b5b612ff9848285612fb0565b509392505050565b600082601f83011261301657613015612efa565b5b8135613026848260208601612fbf565b91505092915050565b61303881612b13565b811461304357600080fd5b50565b6000813590506130558161302f565b92915050565b60008060008060008060008060006101208a8c03121561307e5761307d6128ae565b5b60008a013567ffffffffffffffff81111561309c5761309b6128b3565b5b6130a88c828d01613001565b99505060208a013567ffffffffffffffff8111156130c9576130c86128b3565b5b6130d58c828d01613001565b98505060408a013567ffffffffffffffff8111156130f6576130f56128b3565b5b6131028c828d01613001565b97505060608a013567ffffffffffffffff811115613123576131226128b3565b5b61312f8c828d01613001565b96505060808a013567ffffffffffffffff8111156131505761314f6128b3565b5b61315c8c828d01613001565b95505060a08a013567ffffffffffffffff81111561317d5761317c6128b3565b5b6131898c828d01613001565b94505060c08a013567ffffffffffffffff8111156131aa576131a96128b3565b5b6131b68c828d01613001565b93505060e08a013567ffffffffffffffff8111156131d7576131d66128b3565b5b6131e38c828d01613001565b9250506101006131f58c828d01613046565b9150509295985092959850929598565b60006020828403121561321b5761321a6128ae565b5b600061322984828501612964565b91505092915050565b600060208201905061324760008301846129b9565b92915050565b600081519050919050565b600082825260208201905092915050565b6000819050602082019050919050565b6000602082019050919050565b60006132918261324d565b61329b8185613258565b9350836020820285016132ad85613269565b8060005b858110156132e957848403895281516132ca8582612cf4565b94506132d583613279565b925060208a019950506001810190506132b1565b50829750879550505050505092915050565b600060208201905081810360008301526133158184613286565b905092915050565b61332681612b13565b82525050565b6000610140820190508181036000830152613347818d612a1f565b9050613356602083018c6129b9565b8181036040830152613368818b612a1f565b9050818103606083015261337c818a612a1f565b905081810360808301526133908189612a1f565b905081810360a08301526133a48188612a1f565b905081810360c08301526133b88187612a1f565b905081810360e08301526133cc8186612a1f565b90508181036101008301526133e18185612a1f565b90506133f161012083018461331d565b9b9a5050505050505050505050565b7f4163636f756e7420646f6573206e6f7420657869737400000000000000000000600082015250565b60006134366016836129d3565b915061344182613400565b602082019050919050565b6000602082019050818103600083015261346581613429565b9050919050565b7f4e487b7100000000000000000000000000000000000000000000000000000000600052603260045260246000fd5b7f4e487b7100000000000000000000000000000000000000000000000000000000600052602260045260246000fd5b600060028204905060018216806134e257607f821691505b6020821081036134f5576134f461349b565b5b50919050565b60008190508160005260206000209050919050565b6000815461351d816134ca565b61352781866129d3565b9450600182166000811461354257600181146135585761358b565b60ff19831686528115156020028601935061358b565b613561856134fb565b60005b8381101561358357815481890152600182019150602081019050613564565b808801955050505b50505092915050565b600060a0820190506135a960008301886129b9565b6135b660208301876129b9565b81810360408301526135c88186613510565b905081810360608301526135dc8185613510565b90506135eb6080830184612a58565b9695505050505050565b7f4e487b7100000000000000000000000000000000000000000000000000000000600052601160045260246000fd5b600061362f82612943565b915061363a83612943565b9250828201905080821115613652576136516135f5565b5b92915050565b60006020601f8301049050919050565b600082821b905092915050565b6000600883026136a57fffffffffffffffffffffffffffffffffffffffffffffffffffffffffffffffff82613668565b6136af8683613668565b95508019841693508086168417925050509392505050565b6000819050919050565b60006136ec6136e76136e284612943565b6136c7565b612943565b9050919050565b6000819050919050565b613706836136d1565b61371a613712826136f3565b848454613675565b825550505050565b600090565b61372f613722565b61373a8184846136fd565b505050565b5b8181101561375e57613753600082613727565b600181019050613740565b5050565b601f8211156137a357613774816134fb565b61377d84613658565b8101602085101561378c578190505b6137a061379885613658565b83018261373f565b50505b505050565b600082821c905092915050565b60006137c6600019846008026137a8565b1980831691505092915050565b60006137df83836137b5565b9150826002028217905092915050565b6137f8826129c8565b67ffffffffffffffff81111561381157613810612f04565b5b61381b82546134ca565b613826828285613762565b600060209050601f8311600181146138595760008415613847578287015190505b61385185826137d3565b8655506138b9565b601f198416613867866134fb565b60005b8281101561388f5784890151825560018201915060208501945060208101905061386a565b868310156138ac57848901516138a8601f8916826137b5565b8355505b6001600288020188555050505b505050505050565b6000610140820190506138d7600083018d6129b9565b81810360208301526138e9818c612a1f565b905081810360408301526138fd818b612a1f565b90508181036060830152613911818a612a1f565b905081810360808301526139258189612a1f565b905081810360a08301526139398188612a1f565b905081810360c083015261394d8187612a1f565b905081810360e08301526139618186612a1f565b90508181036101008301526139768185612a1f565b905061398661012083018461331d565b9b9a505050505050505050505056fea264697066735822122021d4c567ee7b4f9681fee94fb6f91b0ec9111cbdb76e403c106c2fd8849cf3cc64736f6c634300081b0033",
  "linkReferences": {},
  "deployedLinkReferences": {}
}