{
  "_format": "hh-sol-artifact-1",
  "contractName": "Token",
  "sourceName": "contracts/Token.sol",
  "abi": [
    {
      "inputs": [
        {
          "internalType": "uint256",
          "name": "_initialSupply",
          "type": "uint256"
        }
      ],
      "stateMutability": "nonpayable",
      "type": "constructor"
    },
    {
      "anonymous": false,
      "inputs": [
        {
          "indexed": true,
          "internalType": "address",
          "name": "_owner",
          "type": "address"
        },
        {
          "indexed": true,
          "internalType": "address",
          "name": "_spender",
          "type": "address"
        },
        {
          "indexed": false,
          "internalType": "uint256",
          "name": "_value",
          "type": "uint256"
        }
      ],
      "name": "Approval",
      "type": "event"
    },
    {
      "anonymous": false,
      "inputs": [
        {
          "indexed": true,
          "internalType": "address",
          "name": "_from",
          "type": "address"
        },
        {
          "indexed": true,
          "internalType": "address",
          "name": "_to",
          "type": "address"
        },
        {
          "indexed": false,
          "internalType": "uint256",
          "name": "_value",
          "type": "uint256"
        }
      ],
      "name": "Transfer",
      "type": "event"
    },
    {
      "inputs": [],
      "name": "_userId",
      "outputs": [
        {
          "internalType": "uint256",
          "name": "",
          "type": "uint256"
        }
      ],
      "stateMutability": "view",
      "type": "function"
    },
    {
      "inputs": [
        {
          "internalType": "address",
          "name": "",
          "type": "address"
        },
        {
          "internalType": "address",
          "name": "",
          "type": "address"
        }
      ],
      "name": "allowance",
      "outputs": [
        {
          "internalType": "uint256",
          "name": "",
          "type": "uint256"
        }
      ],
      "stateMutability": "view",
      "type": "function"
    },
    {
      "inputs": [
        {
          "internalType": "address",
          "name": "_spender",
          "type": "address"
        },
        {
          "internalType": "uint256",
          "name": "_value",
          "type": "uint256"
        }
      ],
      "name": "approve",
      "outputs": [
        {
          "internalType": "bool",
          "name": "success",
          "type": "bool"
        }
      ],
      "stateMutability": "nonpayable",
      "type": "function"
    },
    {
      "inputs": [
        {
          "internalType": "address",
          "name": "",
          "type": "address"
        }
      ],
      "name": "balanceOf",
      "outputs": [
        {
          "internalType": "uint256",
          "name": "",
          "type": "uint256"
        }
      ],
      "stateMutability": "view",
      "type": "function"
    },
    {
      "inputs": [],
      "name": "getTokenHolder",
      "outputs": [
        {
          "internalType": "address[]",
          "name": "",
          "type": "address[]"
        }
      ],
      "stateMutability": "view",
      "type": "function"
    },
    {
      "inputs": [
        {
          "internalType": "address",
          "name": "_address",
          "type": "address"
        }
      ],
      "name": "getTokenHolderData",
      "outputs": [
        {
          "internalType": "uint256",
          "name": "",
          "type": "uint256"
        },
        {
          "internalType": "address",
          "name": "",
          "type": "address"
        },
        {
          "internalType": "address",
          "name": "",
          "type": "address"
        },
        {
          "internalType": "uint256",
          "name": "",
          "type": "uint256"
        },
        {
          "internalType": "bool",
          "name": "",
          "type": "bool"
        }
      ],
      "stateMutability": "view",
      "type": "function"
    },
    {
      "inputs": [
        {
          "internalType": "uint256",
          "name": "",
          "type": "uint256"
        }
      ],
      "name": "holderToken",
      "outputs": [
        {
          "internalType": "address",
          "name": "",
          "type": "address"
        }
      ],
      "stateMutability": "view",
      "type": "function"
    },
    {
      "inputs": [],
      "name": "name",
      "outputs": [
        {
          "internalType": "string",
          "name": "",
          "type": "string"
        }
      ],
      "stateMutability": "view",
      "type": "function"
    },
    {
      "inputs": [],
      "name": "ownerOfContract",
      "outputs": [
        {
          "internalType": "address",
          "name": "",
          "type": "address"
        }
      ],
      "stateMutability": "view",
      "type": "function"
    },
    {
      "inputs": [],
      "name": "standard",
      "outputs": [
        {
          "internalType": "string",
          "name": "",
          "type": "string"
        }
      ],
      "stateMutability": "view",
      "type": "function"
    },
    {
      "inputs": [],
      "name": "symbol",
      "outputs": [
        {
          "internalType": "string",
          "name": "",
          "type": "string"
        }
      ],
      "stateMutability": "view",
      "type": "function"
    },
    {
      "inputs": [
        {
          "internalType": "address",
          "name": "",
          "type": "address"
        }
      ],
      "name": "tokenHolderInfos",
      "outputs": [
        {
          "internalType": "uint256",
          "name": "_tokenId",
          "type": "uint256"
        },
        {
          "internalType": "address",
          "name": "_from",
          "type": "address"
        },
        {
          "internalType": "address",
          "name": "_to",
          "type": "address"
        },
        {
          "internalType": "uint256",
          "name": "_totalToken",
          "type": "uint256"
        },
        {
          "internalType": "bool",
          "name": "_tokenHolder",
          "type": "bool"
        }
      ],
      "stateMutability": "view",
      "type": "function"
    },
    {
      "inputs": [],
      "name": "totalSupply",
      "outputs": [
        {
          "internalType": "uint256",
          "name": "",
          "type": "uint256"
        }
      ],
      "stateMutability": "view",
      "type": "function"
    },
    {
      "inputs": [
        {
          "internalType": "address",
          "name": "_to",
          "type": "address"
        },
        {
          "internalType": "uint256",
          "name": "_value",
          "type": "uint256"
        }
      ],
      "name": "transfer",
      "outputs": [
        {
          "internalType": "bool",
          "name": "success",
          "type": "bool"
        }
      ],
      "stateMutability": "nonpayable",
      "type": "function"
    },
    {
      "inputs": [
        {
          "internalType": "address",
          "name": "_from",
          "type": "address"
        },
        {
          "internalType": "address",
          "name": "_to",
          "type": "address"
        },
        {
          "internalType": "uint256",
          "name": "_value",
          "type": "uint256"
        }
      ],
      "name": "transferFrom",
      "outputs": [
        {
          "internalType": "bool",
          "name": "success",
          "type": "bool"
        }
      ],
      "stateMutability": "nonpayable",
      "type": "function"
    }
  ],
  "bytecode": "0x60806040526040518060400160405280600881526020017f4a736e546f6b656e000000000000000000000000000000000000000000000000815250600090816200004a919062000419565b506040518060400160405280600381526020017f4a534e00000000000000000000000000000000000000000000000000000000008152506001908162000091919062000419565b506040518060400160405280600e81526020017f4a736e546f6b656e20762e302e3100000000000000000000000000000000000081525060029081620000d8919062000419565b50348015620000e657600080fd5b5060405162001cef38038062001cef83398181016040528101906200010c919062000536565b33600560006101000a81548173ffffffffffffffffffffffffffffffffffffffff021916908373ffffffffffffffffffffffffffffffffffffffff16021790555080600860003373ffffffffffffffffffffffffffffffffffffffff1673ffffffffffffffffffffffffffffffffffffffff16815260200190815260200160002081905550806003819055505062000568565b600081519050919050565b7f4e487b7100000000000000000000000000000000000000000000000000000000600052604160045260246000fd5b7f4e487b7100000000000000000000000000000000000000000000000000000000600052602260045260246000fd5b600060028204905060018216806200022157607f821691505b602082108103620002375762000236620001d9565b5b50919050565b60008190508160005260206000209050919050565b60006020601f8301049050919050565b600082821b905092915050565b600060088302620002a17fffffffffffffffffffffffffffffffffffffffffffffffffffffffffffffffff8262000262565b620002ad868362000262565b95508019841693508086168417925050509392505050565b6000819050919050565b6000819050919050565b6000620002fa620002f4620002ee84620002c5565b620002cf565b620002c5565b9050919050565b6000819050919050565b6200031683620002d9565b6200032e620003258262000301565b8484546200026f565b825550505050565b600090565b6200034562000336565b620003528184846200030b565b505050565b5b818110156200037a576200036e6000826200033b565b60018101905062000358565b5050565b601f821115620003c95762000393816200023d565b6200039e8462000252565b81016020851015620003ae578190505b620003c6620003bd8562000252565b83018262000357565b50505b505050565b600082821c905092915050565b6000620003ee60001984600802620003ce565b1980831691505092915050565b6000620004098383620003db565b9150826002028217905092915050565b62000424826200019f565b67ffffffffffffffff81111562000440576200043f620001aa565b5b6200044c825462000208565b620004598282856200037e565b600060209050601f8311600181146200049157600084156200047c578287015190505b620004888582620003fb565b865550620004f8565b601f198416620004a1866200023d565b60005b82811015620004cb57848901518255600182019150602085019450602081019050620004a4565b86831015620004eb5784890151620004e7601f891682620003db565b8355505b6001600288020188555050505b505050505050565b600080fd5b6200051081620002c5565b81146200051c57600080fd5b50565b600081519050620005308162000505565b92915050565b6000602082840312156200054f576200054e62000500565b5b60006200055f848285016200051f565b91505092915050565b61177780620005786000396000f3fe608060405234801561001057600080fd5b50600436106100f55760003560e01c806370a0823111610097578063a9059cbb11610066578063a9059cbb146102b8578063ba8e3557146102e8578063bc4530e714610306578063dd62ed3e14610324576100f5565b806370a0823114610206578063760b06c51461023657806382b682631461026657806395d89b411461029a576100f5565b806323b872dd116100d357806323b872dd1461016657806329cc66ed14610196578063468229ae146101ca5780635a3b7e42146101e8576100f5565b806306fdde03146100fa578063095ea7b31461011857806318160ddd14610148575b600080fd5b610102610354565b60405161010f9190611156565b60405180910390f35b610132600480360381019061012d9190611211565b6103e2565b60405161013f919061126c565b60405180910390f35b6101506104d4565b60405161015d9190611296565b60405180910390f35b610180600480360381019061017b91906112b1565b6104da565b60405161018d919061126c565b60405180910390f35b6101b060048036038101906101ab9190611304565b6107cc565b6040516101c1959493929190611340565b60405180910390f35b6101d261084f565b6040516101df9190611393565b60405180910390f35b6101f0610875565b6040516101fd9190611156565b60405180910390f35b610220600480360381019061021b9190611304565b610903565b60405161022d9190611296565b60405180910390f35b610250600480360381019061024b91906113ae565b61091b565b60405161025d9190611393565b60405180910390f35b610280600480360381019061027b9190611304565b61095a565b604051610291959493929190611340565b60405180910390f35b6102a2610b11565b6040516102af9190611156565b60405180910390f35b6102d260048036038101906102cd9190611211565b610b9f565b6040516102df919061126c565b60405180910390f35b6102f0610ff3565b6040516102fd9190611499565b60405180910390f35b61030e611081565b60405161031b9190611296565b60405180910390f35b61033e600480360381019061033991906114bb565b611087565b60405161034b9190611296565b60405180910390f35b600080546103619061152a565b80601f016020809104026020016040519081016040528092919081815260200182805461038d9061152a565b80156103da5780601f106103af576101008083540402835291602001916103da565b820191906000526020600020905b8154815290600101906020018083116103bd57829003601f168201915b505050505081565b600081600960003373ffffffffffffffffffffffffffffffffffffffff1673ffffffffffffffffffffffffffffffffffffffff16815260200190815260200160002060008573ffffffffffffffffffffffffffffffffffffffff1673ffffffffffffffffffffffffffffffffffffffff168152602001908152602001600020819055508273ffffffffffffffffffffffffffffffffffffffff163373ffffffffffffffffffffffffffffffffffffffff167f8c5be1e5ebec7d5bd14f71427d1e84f3dd0314c0f7b2291e5b200ac8c7c3b925846040516104c29190611296565b60405180910390a36001905092915050565b60035481565b600081600860008673ffffffffffffffffffffffffffffffffffffffff1673ffffffffffffffffffffffffffffffffffffffff16815260200190815260200160002054101561055e576040517f08c379a0000000000000000000000000000000000000000000000000000000008152600401610555906115a7565b60405180910390fd5b81600960008673ffffffffffffffffffffffffffffffffffffffff1673ffffffffffffffffffffffffffffffffffffffff16815260200190815260200160002060003373ffffffffffffffffffffffffffffffffffffffff1673ffffffffffffffffffffffffffffffffffffffff16815260200190815260200160002054101561061d576040517f08c379a000000000000000000000000000000000000000000000000000000000815260040161061490611613565b60405180910390fd5b81600860008673ffffffffffffffffffffffffffffffffffffffff1673ffffffffffffffffffffffffffffffffffffffff168152602001908152602001600020600082825461066c9190611662565b9250508190555081600860008573ffffffffffffffffffffffffffffffffffffffff1673ffffffffffffffffffffffffffffffffffffffff16815260200190815260200160002060008282546106c29190611696565b9250508190555081600960008673ffffffffffffffffffffffffffffffffffffffff1673ffffffffffffffffffffffffffffffffffffffff16815260200190815260200160002060003373ffffffffffffffffffffffffffffffffffffffff1673ffffffffffffffffffffffffffffffffffffffff16815260200190815260200160002060008282546107559190611662565b925050819055508273ffffffffffffffffffffffffffffffffffffffff168473ffffffffffffffffffffffffffffffffffffffff167fddf252ad1be2c89b69c2b068fc378daa952ba7f163c4a11628f55a4df523b3ef846040516107b99190611296565b60405180910390a3600190509392505050565b60076020528060005260406000206000915090508060000154908060010160009054906101000a900473ffffffffffffffffffffffffffffffffffffffff16908060020160009054906101000a900473ffffffffffffffffffffffffffffffffffffffff16908060030154908060040160009054906101000a900460ff16905085565b600560009054906101000a900473ffffffffffffffffffffffffffffffffffffffff1681565b600280546108829061152a565b80601f01602080910402602001604051908101604052809291908181526020018280546108ae9061152a565b80156108fb5780601f106108d0576101008083540402835291602001916108fb565b820191906000526020600020905b8154815290600101906020018083116108de57829003601f168201915b505050505081565b60086020528060005260406000206000915090505481565b6006818154811061092b57600080fd5b906000526020600020016000915054906101000a900473ffffffffffffffffffffffffffffffffffffffff1681565b6000806000806000600760008773ffffffffffffffffffffffffffffffffffffffff1673ffffffffffffffffffffffffffffffffffffffff16815260200190815260200160002060000154600760008873ffffffffffffffffffffffffffffffffffffffff1673ffffffffffffffffffffffffffffffffffffffff16815260200190815260200160002060020160009054906101000a900473ffffffffffffffffffffffffffffffffffffffff16600760008973ffffffffffffffffffffffffffffffffffffffff1673ffffffffffffffffffffffffffffffffffffffff16815260200190815260200160002060010160009054906101000a900473ffffffffffffffffffffffffffffffffffffffff16600760008a73ffffffffffffffffffffffffffffffffffffffff1673ffffffffffffffffffffffffffffffffffffffff16815260200190815260200160002060030154600760008b73ffffffffffffffffffffffffffffffffffffffff1673ffffffffffffffffffffffffffffffffffffffff16815260200190815260200160002060040160009054906101000a900460ff169450945094509450945091939590929450565b60018054610b1e9061152a565b80601f0160208091040260200160405190810160405280929190818152602001828054610b4a9061152a565b8015610b975780601f10610b6c57610100808354040283529160200191610b97565b820191906000526020600020905b815481529060010190602001808311610b7a57829003601f168201915b505050505081565b600081600860003373ffffffffffffffffffffffffffffffffffffffff1673ffffffffffffffffffffffffffffffffffffffff168152602001908152602001600020541015610c23576040517f08c379a0000000000000000000000000000000000000000000000000000000008152600401610c1a906115a7565b60405180910390fd5b610c2b6110ac565b81600860003373ffffffffffffffffffffffffffffffffffffffff1673ffffffffffffffffffffffffffffffffffffffff1681526020019081526020016000206000828254610c7a9190611662565b9250508190555081600860008573ffffffffffffffffffffffffffffffffffffffff1673ffffffffffffffffffffffffffffffffffffffff1681526020019081526020016000206000828254610cd09190611696565b9250508190555060006040518060a0016040528060045481526020013373ffffffffffffffffffffffffffffffffffffffff1681526020018573ffffffffffffffffffffffffffffffffffffffff168152602001600860008773ffffffffffffffffffffffffffffffffffffffff1673ffffffffffffffffffffffffffffffffffffffff16815260200190815260200160002054815260200160011515815250905080600760008673ffffffffffffffffffffffffffffffffffffffff1673ffffffffffffffffffffffffffffffffffffffff1681526020019081526020016000206000820151816000015560208201518160010160006101000a81548173ffffffffffffffffffffffffffffffffffffffff021916908373ffffffffffffffffffffffffffffffffffffffff16021790555060408201518160020160006101000a81548173ffffffffffffffffffffffffffffffffffffffff021916908373ffffffffffffffffffffffffffffffffffffffff1602179055506060820151816003015560808201518160040160006101000a81548160ff0219169083151502179055509050506000805b600680549050811015610f11578573ffffffffffffffffffffffffffffffffffffffff1660068281548110610eb357610eb26116ca565b5b9060005260206000200160009054906101000a900473ffffffffffffffffffffffffffffffffffffffff1673ffffffffffffffffffffffffffffffffffffffff1603610efe57600191505b8080610f09906116f9565b915050610e7b565b506000151581151503610f82576006859080600181540180825580915050600190039060005260206000200160009091909190916101000a81548173ffffffffffffffffffffffffffffffffffffffff021916908373ffffffffffffffffffffffffffffffffffffffff1602179055505b8473ffffffffffffffffffffffffffffffffffffffff163373ffffffffffffffffffffffffffffffffffffffff167fddf252ad1be2c89b69c2b068fc378daa952ba7f163c4a11628f55a4df523b3ef86604051610fdf9190611296565b60405180910390a360019250505092915050565b6060600680548060200260200160405190810160405280929190818152602001828054801561107757602002820191906000526020600020905b8160009054906101000a900473ffffffffffffffffffffffffffffffffffffffff1673ffffffffffffffffffffffffffffffffffffffff168152602001906001019080831161102d575b5050505050905090565b60045481565b6009602052816000526040600020602052806000526040600020600091509150505481565b600460008154809291906110bf906116f9565b9190505550565b600081519050919050565b600082825260208201905092915050565b60005b838110156111005780820151818401526020810190506110e5565b60008484015250505050565b6000601f19601f8301169050919050565b6000611128826110c6565b61113281856110d1565b93506111428185602086016110e2565b61114b8161110c565b840191505092915050565b60006020820190508181036000830152611170818461111d565b905092915050565b600080fd5b600073ffffffffffffffffffffffffffffffffffffffff82169050919050565b60006111a88261117d565b9050919050565b6111b88161119d565b81146111c357600080fd5b50565b6000813590506111d5816111af565b92915050565b6000819050919050565b6111ee816111db565b81146111f957600080fd5b50565b60008135905061120b816111e5565b92915050565b6000806040838503121561122857611227611178565b5b6000611236858286016111c6565b9250506020611247858286016111fc565b9150509250929050565b60008115159050919050565b61126681611251565b82525050565b6000602082019050611281600083018461125d565b92915050565b611290816111db565b82525050565b60006020820190506112ab6000830184611287565b92915050565b6000806000606084860312156112ca576112c9611178565b5b60006112d8868287016111c6565b93505060206112e9868287016111c6565b92505060406112fa868287016111fc565b9150509250925092565b60006020828403121561131a57611319611178565b5b6000611328848285016111c6565b91505092915050565b61133a8161119d565b82525050565b600060a0820190506113556000830188611287565b6113626020830187611331565b61136f6040830186611331565b61137c6060830185611287565b611389608083018461125d565b9695505050505050565b60006020820190506113a86000830184611331565b92915050565b6000602082840312156113c4576113c3611178565b5b60006113d2848285016111fc565b91505092915050565b600081519050919050565b600082825260208201905092915050565b6000819050602082019050919050565b6114108161119d565b82525050565b60006114228383611407565b60208301905092915050565b6000602082019050919050565b6000611446826113db565b61145081856113e6565b935061145b836113f7565b8060005b8381101561148c5781516114738882611416565b975061147e8361142e565b92505060018101905061145f565b5085935050505092915050565b600060208201905081810360008301526114b3818461143b565b905092915050565b600080604083850312156114d2576114d1611178565b5b60006114e0858286016111c6565b92505060206114f1858286016111c6565b9150509250929050565b7f4e487b7100000000000000000000000000000000000000000000000000000000600052602260045260246000fd5b6000600282049050600182168061154257607f821691505b602082108103611555576115546114fb565b5b50919050565b7f496e73756666696369656e742062616c616e6365000000000000000000000000600082015250565b60006115916014836110d1565b915061159c8261155b565b602082019050919050565b600060208201905081810360008301526115c081611584565b9050919050565b7f416c6c6f77616e63652065786365656465640000000000000000000000000000600082015250565b60006115fd6012836110d1565b9150611608826115c7565b602082019050919050565b6000602082019050818103600083015261162c816115f0565b9050919050565b7f4e487b7100000000000000000000000000000000000000000000000000000000600052601160045260246000fd5b600061166d826111db565b9150611678836111db565b92508282039050818111156116905761168f611633565b5b92915050565b60006116a1826111db565b91506116ac836111db565b92508282019050808211156116c4576116c3611633565b5b92915050565b7f4e487b7100000000000000000000000000000000000000000000000000000000600052603260045260246000fd5b6000611704826111db565b91507fffffffffffffffffffffffffffffffffffffffffffffffffffffffffffffffff820361173657611735611633565b5b60018201905091905056fea264697066735822122091cfdd445486c186c6741efc1f462c4dc37a3c5468994bea4950183675e6584f64736f6c63430008120033",
  "linkReferences": {},
  "deployedLinkReferences": {}
}